{"abi":[{"type":"constructor","inputs":[{"name":"_verifier","type":"address","internalType":"contract IVerifier"}],"stateMutability":"nonpayable"},{"type":"receive","stateMutability":"payable"},{"type":"function","name":"commitmentCount","inputs":[],"outputs":[{"name":"","type":"uint256","internalType":"uint256"}],"stateMutability":"view"},{"type":"function","name":"commitments","inputs":[{"name":"","type":"uint256","internalType":"uint256"}],"outputs":[{"name":"","type":"bytes32","internalType":"bytes32"}],"stateMutability":"view"},{"type":"function","name":"deposit","inputs":[{"name":"commitment","type":"bytes32","internalType":"bytes32"}],"outputs":[],"stateMutability":"payable"},{"type":"function","name":"nullifiers","inputs":[{"name":"","type":"bytes32","internalType":"bytes32"}],"outputs":[{"name":"","type":"bool","internalType":"bool"}],"stateMutability":"view"},{"type":"function","name":"poolBalance","inputs":[],"outputs":[{"name":"","type":"uint256","internalType":"uint256"}],"stateMutability":"view"},{"type":"function","name":"totalDeposits","inputs":[],"outputs":[{"name":"","type":"uint256","internalType":"uint256"}],"stateMutability":"view"},{"type":"function","name":"totalWithdrawals","inputs":[],"outputs":[{"name":"","type":"uint256","internalType":"uint256"}],"stateMutability":"view"},{"type":"function","name":"verifier","inputs":[],"outputs":[{"name":"","type":"address","internalType":"contract IVerifier"}],"stateMutability":"view"},{"type":"function","name":"withdraw","inputs":[{"name":"nullifier","type":"bytes32","internalType":"bytes32"},{"name":"recipient","type":"address","internalType":"address payable"},{"name":"amount","type":"uint256","internalType":"uint256"},{"name":"relayer","type":"address","internalType":"address payable"},{"name":"fee","type":"uint256","internalType":"uint256"},{"name":"proof","type":"bytes","internalType":"bytes"},{"name":"publicInputs","type":"bytes32[]","internalType":"bytes32[]"}],"outputs":[],"stateMutability":"nonpayable"},{"type":"event","name":"Deposit","inputs":[{"name":"index","type":"uint256","indexed":true,"internalType":"uint256"},{"name":"commitment","type":"bytes32","indexed":true,"internalType":"bytes32"},{"name":"amount","type":"uint256","indexed":false,"internalType":"uint256"},{"name":"sender","type":"address","indexed":true,"internalType":"address"}],"anonymous":false},{"type":"event","name":"Withdrawal","inputs":[{"name":"nullifier","type":"bytes32","indexed":true,"internalType":"bytes32"},{"name":"recipient","type":"address","indexed":true,"internalType":"address"},{"name":"relayer","type":"address","indexed":true,"internalType":"address"},{"name":"amount","type":"uint256","indexed":false,"internalType":"uint256"},{"name":"fee","type":"uint256","indexed":false,"internalType":"uint256"}],"anonymous":false}],"bytecode":{"object":"0x60a0604052600160005534801561001557600080fd5b50604051610adf380380610adf8339810160408190526100349161009f565b6001600160a01b03811661008e5760405162461bcd60e51b815260206004820152601560248201527f53503a2076657269666965722072657175697265640000000000000000000000604482015260640160405180910390fd5b6001600160a01b03166080526100cf565b6000602082840312156100b157600080fd5b81516001600160a01b03811681146100c857600080fd5b9392505050565b6080516109ee6100f160003960008181610105015261038501526109ee6000f3fe60806040526004361061008a5760003560e01c80636046462711610059578063604646271461018f5780637d882097146101a557806396365d44146101bb578063b214faa5146101ce578063c44956d1146101e157600080fd5b80632997e86b146100ae5780632b7ac3f3146100f3578063342207661461013f57806349ce89971461016157600080fd5b366100a95734600360008282546100a191906107a0565b925050819055005b600080fd5b3480156100ba57600080fd5b506100de6100c93660046107b9565b60016020526000908152604090205460ff1681565b60405190151581526020015b60405180910390f35b3480156100ff57600080fd5b506101277f000000000000000000000000000000000000000000000000000000000000000081565b6040516001600160a01b0390911681526020016100ea565b34801561014b57600080fd5b5061015f61015a36600461083a565b6101f6565b005b34801561016d57600080fd5b5061018161017c3660046107b9565b610652565b6040519081526020016100ea565b34801561019b57600080fd5b5061018160045481565b3480156101b157600080fd5b5061018160035481565b3480156101c757600080fd5b5047610181565b61015f6101dc3660046107b9565b610673565b3480156101ed57600080fd5b50600254610181565b60005460011461023d5760405162461bcd60e51b815260206004820152600d60248201526c14d40e881c99595b9d1c985b9d609a1b60448201526064015b60405180910390fd5b600260009081558981526001602052604090205460ff16156102965760405162461bcd60e51b815260206004820152601260248201527114d40e881b9d5b1b1a599a595c881d5cd95960721b6044820152606401610234565b6001600160a01b0388166102e05760405162461bcd60e51b815260206004820152601160248201527014d40e88189859081c9958da5c1a595b9d607a1b6044820152606401610234565b868511156103235760405162461bcd60e51b815260206004820152601060248201526f14d40e88199959480f88185b5bdd5b9d60821b6044820152606401610234565b8647101561036b5760405162461bcd60e51b815260206004820152601560248201527414d40e881a5b9cdd59999a58da595b9d081c1bdbdb605a1b6044820152606401610234565b604051633a94343960e21b81526000906001600160a01b037f0000000000000000000000000000000000000000000000000000000000000000169063ea50d0e4906103c0908890889088908890600401610918565b602060405180830381865afa1580156103dd573d6000803e3d6000fd5b505050506040513d601f19601f82011682018060405250810190610401919061097c565b9050806104445760405162461bcd60e51b815260206004820152601160248201527029a81d1034b73b30b634b210383937b7b360791b6044820152606401610234565b60008a81526001602081905260408220805460ff19169091179055600480548a92906104719084906107a0565b9091555050851580159061048d57506001600160a01b03871615155b15610537576000876001600160a01b03168760405160006040518083038185875af1925050503d80600081146104df576040519150601f19603f3d011682016040523d82523d6000602084013e6104e4565b606091505b50509050806105355760405162461bcd60e51b815260206004820152601760248201527f53503a2072656c617965722078666572206661696c65640000000000000000006044820152606401610234565b505b6000610543878a6109a5565b905060008a6001600160a01b03168260405160006040518083038185875af1925050503d8060008114610592576040519150601f19603f3d011682016040523d82523d6000602084013e610597565b606091505b50509050806105e85760405162461bcd60e51b815260206004820152601960248201527f53503a20726563697069656e742078666572206661696c6564000000000000006044820152606401610234565b886001600160a01b03168b6001600160a01b03168d7f714d530f185831eace3660943ba1a7777fa9d06e66c1ec97dd73b6bbc877db178d8c604051610637929190918252602082015260400190565b60405180910390a45050600160005550505050505050505050565b6002818154811061066257600080fd5b600091825260209091200154905081565b6000546001146106b55760405162461bcd60e51b815260206004820152600d60248201526c14d40e881c99595b9d1c985b9d609a1b6044820152606401610234565b600260005534806106fa5760405162461bcd60e51b815260206004820152600f60248201526e14d40e881e995c9bc8185b5bdd5b9d608a1b6044820152606401610234565b6002805460018101825560009182527f405787fa12a823e0f2b7631cc41b3ba8828b3321ca811111fa75cd3aa3bb5ace810184905560038054919284926107429084906107a0565b90915550506040518281523390849083907f5e973e0b52f6419896ed5d4c34ad1e000e571a02afe633db5488a71a6adcfc2e9060200160405180910390a45050600160005550565b634e487b7160e01b600052601160045260246000fd5b808201808211156107b3576107b361078a565b92915050565b6000602082840312156107cb57600080fd5b5035919050565b80356001600160a01b03811681146107e957600080fd5b919050565b60008083601f84011261080057600080fd5b50813567ffffffffffffffff81111561081857600080fd5b6020830191508360208260051b850101111561083357600080fd5b9250929050565b600080600080600080600080600060e08a8c03121561085857600080fd5b8935985061086860208b016107d2565b975060408a0135965061087d60608b016107d2565b955060808a0135945060a08a013567ffffffffffffffff808211156108a157600080fd5b818c0191508c601f8301126108b557600080fd5b8135818111156108c457600080fd5b8d60208285010111156108d657600080fd5b6020830196508095505060c08c01359150808211156108f457600080fd5b506109018c828d016107ee565b915080935050809150509295985092959850929598565b6040815283604082015283856060830137600060608583018101829052601f19601f8701168301838103820160208501529081018490526001600160fb1b0384111561096357600080fd5b8360051b80866080840137016080019695505050505050565b60006020828403121561098e57600080fd5b8151801515811461099e57600080fd5b9392505050565b818103818111156107b3576107b361078a56fea26469706673582212206def008fc6a070bde495e332ecbef6d006ddef63894be407053ab8786026621564736f6c63430008180033","linkReferences":{}},"methodIdentifiers":{"commitmentCount()":"c44956d1","commitments(uint256)":"49ce8997","deposit(bytes32)":"b214faa5","nullifiers(bytes32)":"2997e86b","poolBalance()":"96365d44","totalDeposits()":"7d882097","totalWithdrawals()":"60464627","verifier()":"2b7ac3f3","withdraw(bytes32,address,uint256,address,uint256,bytes,bytes32[])":"34220766"},"id":22}